:100000000C941B330C944C330C944C330C944C33A5
:100010000C944C330D94FE2C0C944C330C944C33B8
:100020000D948C2C0C944C330C944C330C944C331A
:100030000C944C330C944C330C94C77E0D94AB064B
:100040000C944C330C94D7830C944C330C944C3359
:100050000C944C330C944C330C944C330D94C51BC2
:100060000C944C330C94B2C30C944C330C944C331E
:100070000C944C330C944C330C944C330C944C3304
:100080000C944C330C944C330C944C330C944C33F4
:100090000C946EC30C944C330C944C330C944C3332
:1000A0000C944C330C944C330C9479450C944C3395
:1000B0000C944C330C944C330C944C330C944C33C4
:1000C0000C944C330C944C330C944C330C948C7730
:1000D0000C944C330C944C330C944C330C944C33A4
:1000E0000C944C33084AD73B3BCE016E84BCBFFD19
:1000F000C12F3D6C74319ABD56833DDA3D00C77FF8
:1001000011BED9E4BB4C3E916BAAAABE0000008090
:100110003F05A84CCDB2D44EB93836A9020C50B91F
:10012000918688083CA6AAAA2ABE000000803F0744
:10013000634236B79BD8A71A39685618AEBAAB5582
:100140008C1D3CB7CC5763BD6DEDFD753EF6177247
:1001500031BF000000803F08000000BE9224491219
:100160003EABAAAA2ABECDCCCC4C3E00000080BE3D
:10017000ABAAAAAA3E00000000BF000000803F001A
:1001800000000000084178D3BB4387D1133D190E0E
:100190003CC3BD4282AD2B3E68EC8276BED98FE176
:1001A000A93E4C80EFFFBE01C4FF7F3F000000006E
:1001B00000000D94111D0D940A1B0D94371C0D9415
:1001C00071480D94181C0D9401490D94864A0D94A4
:1001D0006C1C0D94131D0D94E51B0D94FF1B0D94C9
:1001E000AE500D9472180D94AB480D94E8150D9413
:1001F000B2A50D94D0A50D947F480D94D71C0D94F5
:100200008C1E0D94C9480D94081D0D942E1C0D9440
:10021000CF4F0D940A1C0D945A1C0D9450490D9407
:100220000F1D0D94F31B0D946E490D9425496E61BD
:100230006E00696E66004E414E494E495459494E12
:1002400046CDCCCC3D0AD7233C17B7D13877CC2B41
:10025000329595E6241FB14F0A000020410000C8E6
:100260004200401C4620BCBE4CCA1B0E5AAEC59D67
:100270007400407A10F35A00A0724E18090010A5BD
:10028000D4E80000E87648170000E40B54020000B0
:10029000CA9A3B000000E1F5050000809698000036
:1002A0000040420F000000A086010000001027005F
:1002B000000000E803000000006400000000000AE5
:1002C00000000000000100000000002C76D888DC4F
:1002D000674F0823DFC1DFAE59E1B1B796E5E3E42C
:1002E00053C63AE651997696E8E6C28426EB898CA5
:1002F0009B62ED407C6FFCEFBC9C9F40F2BAA56F07
:10030000A5F490055A2AF75C936B6CF9676DC11BD5
:10031000FCE0E40D47FEF520E6B500D0ED902E039D
:1003200000943577050080841E080000204E0A00E6
:100330000000C80C333333330F986E12831141EF32
:100340008D2114893BE65516CFFEE6DB18D1844B90
:10035000381BF77C1D901DA4BBE424203284725E00
:10036000228100C9F124ECA1E53D2745787472751E
:10037000646572004D6F7665205A004D6F7665207A
:1003800059004D6F76652058004372617368206490
:100390006574656374696F6E2063616E0A626520BF
:1003A0007475726E6564206F6E206F6E6C79206953
:1003B0006E0A4E6F726D616C206D6F6465005741FF
:1003C000524E494E473A0A4372617368206465741D
:1003D000656374696F6E0A64697361626C65642039
:1003E000696E0A537465616C7468206D6F64650092
:1003F0004175746F6C6F6164696E672066696C61CA
:100400006D656E7420617661696C61626C65206FE8
:100410006E6C79207768656E2066696C616D656EBB
:10042000742073656E736F72206973207475726EB9
:100430006564206F6E2E2E2E004552524F523A2088
:1004400046696C616D656E742073656E736F7220A2
:100450006973206E6F7420726573706F6E64696E5D
:10046000672C20706C6561736520636865636B2021
:10047000636F6E6E656374696F6E2E004D6F646599
:10048000206368616E676520696E2070726F6772A5
:10049000657373202E2E2E0043616C696272617445
:1004A0006500536865657420252E37730A5A206FDE
:1004B00066667365743A20252B312E3366206D6D88
:1004C0000A2563436F6E74696E75650A25635374FC
:1004D0006172742066726F6D207A65726F00506C65
:1004E00065617365206C6F61642066696C616D6520
:1004F0006E742066697273742E0049732066696C8D
:10050000616D656E74206C6F616465643F0043616A
:100510006E63656C0046696C616D656E7400536551
:100520006C6563742066696C616D656E743A005227
:10053000756E6E696E672057697A6172642077699B
:100540006C6C2064656C6574652063757272656E91
:10055000742063616C6962726174696F6E20726588
:1005600073756C747320616E64207374617274208F
:1005700066726F6D2074686520626567696E6E696A
:100580006E672E20436F6E74696E75653F00507202
:100590006568656174696E67206E6F7A7A6C652E26
:1005A00020506C6561736520776169742E004C6F13
:1005B0006164696E672066696C616D656E74005078
:1005C0006C6561736520696E736572742066696C11
:1005D000616D656E7420696E746F20746865206546
:1005E000787472756465722C207468656E20707200
:1005F00065737320746865206B6E6F6220746F2062
:100600006C6F61642069742E00506C6561736520A5
:10061000696E736572742066696C616D656E7420B5
:10062000696E746F207468652066697273742074D3
:10063000756265206F6620746865204D4D552C20CD
:100640007468656E20707265737320746865206BC2
:100650006E6F6220746F206C6F61642069742E006D
:10066000546865207072696E7465722077696C6C6D
:10067000207374617274207072696E74696E672081
:1006800061207A69672D7A6167206C696E652E201A
:10069000526F7461746520746865206B6E6F6220A0
:1006A000756E74696C20796F75207265616368205E
:1006B000746865206F7074696D616C206865696726
:1006C00068742E20436865636B20746865207069C8
:1006D00063747572657320696E2074686520686143
:1006E0006E64626F6F6B202843616C696272617423
:1006F000696F6E2063686170746572292E0053659E
:100700006C6563742074656D706572617475726573
:10071000207768696368206D617463686573207908
:100720006F7572206D6174657269616C2E0043682B
:100730006F6F736520612066696C616D656E7420F2
:10074000666F7220746865204669727374204C610C
:100750007965722043616C6962726174696F6E20A1
:10076000616E642073656C65637420697420696EC2
:1007700020746865206F6E2D73637265656E206DE1
:10078000656E752E004E6F7720492077696C6C205E
:1007900063616C6962726174652064697374616E0F
:1007A0006365206265747765656E20746970206F7B
:1007B0006620746865206E6F7A7A6C6520616E645D
:1007C0002068656174626564207375726661636533
:1007D0002E00596F752063616E20616C77617973AB
:1007E00020726573756D65207468652057697A613C
:1007F00072642066726F6D2043616C69627261740D
:10080000696F6E202D3E2057697A6172642E005008
:100810006C6561736520636865636B206F7572201A
:1008200068616E64626F6F6B20616E6420666978C8
:10083000207468652070726F626C656D2E2054683C
:10084000656E20726573756D6520746865205769E3
:100850007A617264206279207265626F6F74696E6A
:100860006720746865207072696E7465722E00412D
:100870006C6C20697320646F6E652E204861707007
:1008800079207072696E74696E67210049662079FB
:100890006F752068617665206164646974696F6E44
:1008A000616C20737465656C207368656574732C66
:1008B0002063616C69627261746520746865697235
:1008C000207072657365747320696E20536574744B
:1008D000696E6773202D204857205365747570200A
:1008E0002D20537465656C207368656574732E00E4
:1008F000506C6561736520636C65616E206865612D
:100900007462656420616E64207468656E20707224
:1009100065737320746865206B6E6F622E00446F80
:1009200020796F752077616E7420746F2072657006
:10093000656174206C617374207374657020746FCA
:1009400020726561646A7573742064697374616E82
:100950006365206265747765656E206E6F7A7A6C68
:100960006520616E6420686561746265643F005350
:10097000656C656374206E6F7A7A6C652070726541
:10098000686561742074656D7065726174757265F7
:10099000207768696368206D617463686573207986
:1009A0006F7572206D6174657269616C2E00497398
:1009B0002066696C616D656E74206C6F616465643E
:1009C0003F0049732066696C616D656E74206C6FC1
:1009D000616465643F004E6F7720492077696C6CD5
:1009E0002070726568656174206E6F7A7A6C65201C
:1009F000666F7220504C412E00492077696C6C2044
:100A000072756E207A2063616C6962726174696FBD
:100A10006E206E6F772E004E6F772072656D6F7649
:100A200065207468652074657374207072696E74D3
:100A30002066726F6D20737465656C2073686565E0
:100A4000742E00506C656173652072656D6F7665FC
:100A5000207368697070696E672068656C70657274
:100A6000732066697273742E00492077696C6C205C
:100A700072756E2078797A2063616C696272617434
:100A8000696F6E206E6F772E2049742077696C6CC9
:100A90002074616B6520617070726F782E20313226
:100AA000206D696E732E0046697273742C20492084
:100AB00077696C6C2072756E207468652073656C44
:100AC000667465737420746F20636865636B206D52
:100AD0006F737420636F6D6D6F6E20617373656DDE
:100AE000626C792070726F626C656D732E0048695C
:100AF0002C204920616D20796F7572204F726967D3
:100B0000696E616C20507275736120693320707258
:100B1000696E7465722E20576F756C6420796F75DD
:100B2000206C696B65206D6520746F206775696442
:100B30006520796F75207468726F756768207468B6
:100B4000652073657475702070726F636573733F91
:100B500000452D636F72726563743A005A2D636F9E
:100B600072726563743A00592D636F7272656374B3
:100B70003A00582D636F72726563743A0053706F58
:100B80006F6C4A6F696E004669726D7761726500BD
:100B90004D6F64656C0053747269637400576172C1
:100BA0006E00485720536574757000485720536590
:100BB00074757000436865636B73004E6F7A7A6C6E
:100BC0006520642E00537465656C207368656574D8
:100BD00073004E6F6E6500416C70686162657400F1
:100BE00054696D6500536F727400466C617368419F
:100BF000697200534420636172640052506920702E
:100C00006F72740054656D702E2063616C2E004C01
:100C1000696E2E20636F7272656374696F6E004D2A
:100C200065736820626564206C6576656C696E67C3
:100C30000048572053657475700046616E732063D9
:100C40006865636B00462E206175746F6C6F61641C
:100C50000044697361626C652073746570706572BD
:100C600073004D6F766520617869730054656D700F
:100C7000657261747572650054656D702E206361D4
:100C80006C6962726174696F6E005265736574207D
:100C900058595A2063616C6962722E005049442091
:100CA00063616C6962726174696F6E004265642091
:100CB0006C6576656C20636F7272656374004D6558
:100CC000736820426564204C6576656C696E6700C8
:100CD00043616C696272617465205A0043616C699A
:100CE00062726174652058595A0053656C66746568
:100CF00073742020202020202020200042656C7466
:100D00002074657374202020202020202000576943
:100D10007A617264004C6F616420616C6C00456A9A
:100D20006563742066696C616D656E7400506C65F6
:100D30006173652070756C6C206F75742066696CCA
:100D4000616D656E7420696D6D6564696174656C53
:100D50007900556E6C6F6164696E672066696C61BD
:100D60006D656E7400526573756D696E6720707283
:100D7000696E740052657365740052656E616D65CD
:100D8000004669727374206C617965722063616CCE
:100D90002E0053656C65637400537465656C207335
:100DA0006865657473005368656574005375707089
:100DB0006F7274004661696C207374617473204DA6
:100DC0004D55004661696C207374617473005374EF
:100DD000617469737469637320200043616C696294
:100DE000726174696F6E004175746F4C6F6164203D
:100DF00066696C616D656E7400456A656374206632
:100E0000696C616D656E7400556E6C6F616420660F
:100E1000696C616D656E74004C6F616420746F2045
:100E20006E6F7A7A6C65004C6F61642066696C61E4
:100E30006D656E74004E6F205344206361726400D0
:100E40005072696E742066726F6D20534400526553
:100E500073756D65207072696E740050617573658D
:100E6000207072696E7400526573756D65207072C2
:100E7000696E740054756E650050726568656174C2
:100E8000004C6976652061646A757374205A004964
:100E90006E666F2073637265656E0046696E697376
:100EA00068696E67206D6F76656D656E747300425C
:100EB00072696768746E65737300417373697374E4
:100EC0000053696C656E74004F6E6365004C6F75FE
:100ED0006400536F756E64004D4D55204D6F646511
:100EE000004372617368206465742E0053746561F9
:100EF0006C7468004E6F726D616C0046616E732099
:100F0000636865636B00506175736500436F6E7451
:100F10002E00465320416374696F6E0046696C2E43
:100F20002073656E736F72004368616E676520663B
:100F3000696C616D656E7400466C6F770053706507
:100F40006564004F6E004E2F41004F6666004D6194
:100F5000676E65747320636F6D702E005A2D70720A
:100F60006F6265206E722E004D6573680054696D66
:100F7000656F75740044696D00427269676874003A
:100F80004175746F004D6F6465004C6576656C202B
:100F900044696D6D6564004C6576656C20427269CC
:100FA0006768740046616E20737065656400426511
:100FB00064004E6F7A7A6C650053657474696E676D
:100FC00073005072696E742061626F7274656400A0
:100FD00053746F70207072696E740046696C65207E
:100FE000696E636F6D706C6574652E20436F6E74EF
:100FF000696E756520616E797761793F0042616342
:101000006B004D61696E00446F6E65004572726FD2
:101010007200436865636B696E6720592E2E2E003F
:101020004572726F7200436865636B696E67205822
:101030002E2E2E0042656C742073746174757300DB
:10104000506C6561736520696E73657274206669A2
:101050006C616D656E742028627574206E6F7420EB
:101060006C6F6164207468656D212920696E746FEE
:1010700020657874727564657220616E642074688E
:10108000656E20707265737320746865206B6E6F77
:10109000622E0057616974696E6720666F72206EF8
:1010A0006F7A7A6C6520616E642062656420636F7C
:1010B0006F6C696E670053656C662074657374208D
:1010C0004F4B0053656C66207465737420737461B4
:1010D00072742020004973207468652066696C6111
:1010E0006D656E7420756E6C6F616465643F00257C
:1010F00073206C6576656C206578706563746564D3
:101100000046616C73652074726967676572696E09
:101110006700537761707065640046726F6E742F5C
:101120006C6566742066616E730041786973004176
:10113000786973206C656E677468004C6F6F7365B7
:101140002070756C6C657900456E6473746F7020E7
:101150006E6F742068697400456E6473746F7000FC
:101160004D6F746F7200456E6473746F70730057C7
:101170006972696E67206572726F720042656420E1
:101180002F20486561746572004E6F7420636F6E26
:101190006E6563746564004865617465722F546898
:1011A00065726D6973746F7200506C656173652050
:1011B000636865636B203A0053656C66746573748D
:1011C000206572726F7220210046696C616D656ED8
:1011D000742073656E736F72005072696E7420664E
:1011E000616E3A0045787472756465722066616E4E
:1011F0003A0043616C6962726174696E6720686F5E
:101200006D650053656C6674657374206661696C06
:101210006564202000416C6C20636F72726563749A
:1012200020202020202000436865636B696E6720C2
:1012300073656E736F72732000436865636B696ECC
:101240006720686F74656E64202000436865636B77
:10125000696E672062656420202020200043686555
:10126000636B696E67205A206178697320200043A0
:101270006865636B696E6720592061786973202007
:1012800000436865636B696E6720582061786973F5
:10129000202000436865636B696E6720656E647328
:1012A000746F7073004572726F72202D20737461B9
:1012B000746963206D656D6F727920686173206257
:1012C00065656E206F7665727772697474656E00FD
:1012D000436172642072656D6F7665640050726957
:1012E0006E746572206E6F7A7A6C65206469616DC8
:1012F0006574657220646966666572732066726FD4
:101300006D2074686520472D636F64652E20506CD6
:101310006561736520636865636B2074686520761A
:10132000616C756520696E2073657474696E67738E
:101330002E205072696E742063616E63656C6C65FB
:10134000642E005072696E746572206E6F7A7A6CCA
:1013500065206469616D657465722064696666659F
:1013600072732066726F6D2074686520472D636FFD
:1013700064652E20436F6E74696E75653F004D4B3A
:101380003353206669726D77617265206465746598
:1013900063746564206F6E204D4B33207072696EEC
:1013A00074657200426F6E64746563682D4D4D2DD7
:1013B000545A42204D4B33732D4854204F4B2E002E
:1013C000426C61636B6F7574206F636375727265D5
:1013D000642E205265636F766572207072696E7438
:1013E0003F0053656C66746573742077696C6C207C
:1013F00062652072756E20746F2063616C69627221
:101400006174652061636375726174652073656ED4
:10141000736F726C657373207265686F6D696E6748
:101420002E005468657265206973207374696C6C52
:101430002061206E65656420746F206D616B65208E
:101440005A2063616C6962726174696F6E2E2050FC
:101450006C6561736520666F6C6C6F77207468656E
:10146000206D616E75616C2C2063686170746572AB
:101470002046697273742073746570732C207365D1
:101480006374696F6E2043616C6962726174696F25
:101490006E20666C6F772E005072696E74657220D4
:1014A000686173206E6F74206265656E2063616C85
:1014B00069627261746564207965742E20506C6570
:1014C00061736520666F6C6C6F7720746865206D42
:1014D000616E75616C2C2063686170746572204662
:1014E000697273742073746570732C2073656374F0
:1014F000696F6E2043616C6962726174696F6E20FE
:10150000666C6F772E004F6C642073657474696E1F
:10151000677320666F756E642E2044656661756C16
:1015200074205049442C2045737465707320657491
:10153000632E2077696C6C206265207365742E00C1
:101540005761726E696E673A20626F7468207072BC
:10155000696E746572207479706520616E64206DA7
:101560006F74686572626F6172642074797065204F
:101570006368616E6765642E005761726E696E679D
:101580003A207072696E7465722074797065206398
:1015900068616E6765642E005761726E696E673AA6
:1015A000206D6F74686572626F6172642074797007
:1015B00065206368616E6765642E00473830004DB2
:1015C0003435004D3435205A004737360057697A94
:1015D0006172642073746174653A2025640A004462
:1015E000697361626C65206661726D206D6F646500
:1015F000004661726D206E756D626572004D383403
:10160000004D343400473238205700473939004400
:10161000697361626C65206661726D206D6F6465CF
:101620003F00252D392E39535B002563252D313898
:101630002E3138732563004661726D206E756D62C0
:101640006572004D363030004D3234004D3233205B
:10165000257300052E2E003033206F72206F6C64CE
:10166000657200303362206F72206E65776572009C
:1016700046696C616D656E742073656E736F722060
:10168000626F617264206368616E6765206465746F
:1016900065637465643A207265766973696F6E205C
:1016A00025530A004D656173757265642066696C27
:1016B000616D656E742073656E736F72206C6F77E9
:1016C000206C6576656C3A2025342E3266560A0009
:1016D0004D656173757265642066696C616D656ED8
:1016E000742073656E736F722068696768206C651B
:1016F00076656C3A2025342E3266560A006C636497
:101700005F73656C66636865636B5F61786973209E
:1017100025642C2025640A00457874722066616E69
:101720002073706565643A202564200A0050726950
:101730006E742066616E2073706565643A2025645E
:10174000200A005465737420323A0A004578747296
:101750002066616E2073706565643A202564200AF6
:10176000005072696E742066616E207370656564E6
:101770003A202564200A005465737420313A0A0027
:101780004D3834004731205A313520463130303021
:1017900000473238205700256320415849532053D1
:1017A00047313D25640A002D2D2D2D2D2D2D2D2D5C
:1017B0002D2D2D2D2D2D2D2D2D2D2D00000000003A
:1017C00000110A04505255534133444657002079C2
:1017D000303D25640A002078303D25640A004F4BD7
:1017E0000A004552524F522061643D25640A002090
:1017F00020207A303D25640A00207A303D25640A95
:10180000002079303D25640A002078303D25640AA7
:101810000078797A63616C5F66696E645F706F6986
:101820006E745F63656E746572320A000000210099
:10183000240027002A002D003000330001010000A1
:10184000040107010A0100002000230026002900EE
:101850002C002F00320000010000030106010901E5
:1018600000000A0B02090C0D0E080703040100001A
:101870000000000000000000000000000000000068
:101880000000000000000000000000001211100025
:101890000000000000000000000000000000000048
:1018A0000000000000000000000000000000000038
:1018B0000000000000006164635F696E69740A00E3
:1018C0000A204F726967696E616C2050727573618E
:1018D0002069330A2020205072757361205265738D
:1018E000656172636800436F6E74696E7565207719
:1018F00069746820616E6F7468657220626F7764C6
:10190000656E3F0025002020202020200020202080
:101910002020200045524153494E4720616C6C20E5
:101920006461746100466163746F7279205245533B
:10193000455400466163746F727920524553455493
:10194000003033206F72206F6C6465720030336238
:10195000206F72206E6577657200202873656E7344
:101960006F7220626F617264207265766973696F4D
:101970006E3A202553290A0044495341424C4544BC
:1019800000454E41424C4544004653656E736F72AC
:1019900020255300494E5434004D4B33534D4D5583
:1019A0003253004E4F4D4B3353002E014170722085
:1019B0002034203230323000436F6D70696C6564C2
:1019C0003A2000286E6F6E652C2064656661756C28
:1019D0007420636F6E66696729004170722020343D
:1019E00020323032302031393A34333A3438002022
:1019F000545A42332E302E332D323438300A0020E0
:101A000055706C6F616420696E2070726F677265CB
:101A1000737300205A3A0020593A0020583A004384
:101A2000524153485F444554454354454458590036
:101A300043524153485F444554454354454459003B
:101A400043524153485F444554454354454458002C
:101A50004D32390057697A61726420656E64207373
:101A6000746174653A2025640A004572723A205008
:101A700052494E542046414E204552524F52004545
:101A800072723A20455854522E2046414E204552FB
:101A9000524F52002F2F20616374696F6E3A726546
:101AA00073756D6564002F2F20616374696F6E3AE2
:101AB00063616E63656C0025533A0A25530A583AF0
:101AC00025640A593A25640041786973206C656E73
:101AD00067746820646966666572656E63653A2539
:101AE0002E33660A004D65617375726564206178F6
:101AF0006973206C656E6774683A252E33660A0038
:101B000045787465726E616C2053504920666C6133
:101B100073680A573235583230434C206973206E4F
:101B20006F74207265732D0A706F6E64696E672E14
:101B3000204C616E67756167650A737769746368C5
:101B400020756E617661696C61626C652E0043720E
:101B50006173684465746563742044495341424C21
:101B6000454400437261736844657465637420453D
:101B70004E41424C45442100573235583230434C97
:101B8000206E6F7420726573706F6E64696E672E5D
:101B90000A002020506C616E6E6572427566666543
:101BA0007242797465733A20002046726565204D53
:101BB000656D6F72793A2000207C20417574686FE2
:101BC000723A2000204C6173742055706461746512
:101BD000643A200020536F66747761726520526505
:101BE00073657400205761746368646F6720526581
:101BF000736574002042726F776E206F7574205287
:101C000065736574002045787465726E616C20524E
:101C10006573657400506F776572557000657272F8
:101C20006F722077726974696E6720746F206669BD
:101C30006C6500656E6473746F7073206869743AC4
:101C40002000446F6E6520736176696E6720666957
:101C50006C652E006F6B0047312058352E302045C3
:101C6000342E302046313030302E30004731205A6B
:101C7000302E32302046313030302E300047312087
:101C80005835352E30204532352046313430302E0F
:101C90003000473120592D322E302046313030303F
:101CA0002E3000473120583234302E302045323526
:101CB0002E30202046323230302E3000473932204C
:101CC00045302E30004731205A302E3320463130F7
:101CD00030302E30004731205835352E30204538F1
:101CE0002E302046323030302E30004731205835EB
:101CF0002E30204533322E302046313830302E30D1
:101D0000004731205835352E30204533322E3020D3
:101D100046313037332E30004731204634303030B2
:101D2000004D323034205331303030004731205AAA
:101D3000352046373230302E3030300047312045A4
:101D40002D312E35303030302046323130302E308B
:101D500030303030004D38330047393000473231B1
:101D6000004739322045302E300047312058353079
:101D7000205935352045332E363237373300473139
:101D80002058323030205935352045302E34393303
:101D90003836004731205832303020593735204509
:101DA000332E3632373733004731205835302059FB
:101DB00037352045302E34393338360047312058F6
:101DC0003530205939352045332E363237373300F8
:101DD00047312058323030205939352045302E34A3
:101DE00039333836004731205832303020593131BC
:101DF000352045332E3632373733004731205835BA
:101E00003020593131352045302E343933383600C1
:101E100047312058353020593133352045332E365F
:101E20003237373300473120583230302059313380
:101E3000352045302E363631373400473120583280
:101E4000303020593135352045322E363237373350
:101E50000047312058313030205931353520453256
:101E60000047312058373520593135352045322E3D
:101E700035004731204631303830004731205A3064
:101E80002E3135302046373230302E30303000475A
:101E90003120583530205931353500473932204509
:101EA000302E3000473238004D313039004D313955
:101EB00030004D3130370024F4D43050C38E20C26E
:101EC000A24017828B7011127A910D816CD90AA8E9
:101ED00061E108C7586607615143061E4B5D05C1A5
:101EE00045A7041A411104093D9803713931034093
:101EF00036DB0265339102D4305402802E1D02631A
:101F00002CEE01752AC501B028A001102781018F90
:101F10002564012B244B01E0223401AC211F018DEB
:101F2000200D01801FFC00841EED00971DDF00B80E
:101F30001CD200E61BC600201BBC00641AB200B213
:101F400019A8000A19A0006A189900D11791004039
:101F5000178B00B516840031167E00B31579003A50
:101F6000157300C7146F0058146A00EE13660088DA
:101F700013630025135E00C7125B006C1257001537
:101F8000125400C111510070114F0021114B00D6A5
:101F90001049008D1047004610440002104200C056
:101FA0000F4000800F3E00420F3C00060F3B00CB6D
:101FB0000E3800930E37005C0E3500270E3400F308
:101FC0000D3200C10D3100900D3000600D2E003239
:101FD0000D2D00050D2C00D90C2B00AE0C29008511
:101FE0000C29005C0C2700350C27000E0C2600E89D
:101FF0000B2400C40B2400A00B23007D0B23005AEC
:102000000B2100390B2100180B2000F80A1F00D902
:102010000A1E00BB0A1E009D0A1D00800A1D0063E7
:102020000A1C00470A1B002C0A1B00110A1A00F7A1
:10203000091A00DD091900C4091900AB0919009239
:102040000917007B091800630917004C09160036B0
:10205000091600200916000A091500F5081500E008
:10206000081400CC081400B8081400A40814009048
:102070000813007D0812006B081300580812004670
:102080000812003408110023081100120811000181
:10209000081100F0071000E0071000D0071000C082
:1020A000071000B0070F00A107100091070E008372
:1020B000070F0074070F0065070E0057070E004951
:1020C000070E003B070D002E070E0020070D001322
:1020D000070D0006070D00F9060C00ED060D00E0E7
:1020E000060C00D4060C00C8060C00BC060C00B0A0
:1020F000060C00A4060B0099060C008D060B00824E
:10210000060B0077060B006C060B0061060A0057F1
:10211000060B004C060A0042060A0038060A002E8A
:10212000060A0024060A001A060A0010060900071B
:10213000060A00FD050900F4050900EB050900E2A7
:10214000050900D9050900D0050900C7050900BE29
:10215000050900B5050800AD050800A50509009CA6
:10216000050800940508008C050800840508007C1B
:10217000050800740508006C050700650508005D8A
:10218000050700560508004E0507004705070040F3
:1021900005080038050700310507002A0507002358
:1021A0000507001C050600160507000F05070008B7
:1021B00005060002050700FB040600F5040700EE13
:1021C000040600E8040600E2040700DB040600D56C
:1021D000040600CF040600C9040600C3040600BDBF
:1021E000040600B7040600B1040500AC040600A60E
:1021F000040600A00405009B040600950405009059
:102200000406008A04050085040500800406007A9F
:1022100004050075040500700405006B04050066E4
:10222000040500610405005C040500570405005224
:102230000405004D04050048040500430405003E64
:102240000404003A04050035040500300404002CA1
:1022500004050027040400230405001E0404001ADA
:1022600004040016040500110404000D0404000910
:102270000405000404040000040400FC030400F846
:10228000030400F4030400F0030400EC030400E87A
:10229000030400E4030400E0030400DC030400D8AA
:1022A000030400D4030400D0030400CC030400C8DA
:1022B000030300C503030024F404D9201BC40C5CF1
:1022C0000E9804C4095F0265077101F405F900FB6B
:1022D00004B30048048700C1036900580355000394
:1022E000034500BE023A008402310053022A00294D
:1022F00002250004022000E4011C00C8011900AFFF
:10230000011700980114008401130071011000618D
:1023100001100051010E0043010D0036010B002B8E
:10232000010B0020010B00150109000C010900033D
:10233000010800FB000800F3000800EB000700E4C0
:10234000000600DE000600D8000600D2000600CC21
:10235000000500C7000500C2000500BD000400B96B
:10236000000400B5000400B1000400AD000400A9A1
:10237000000400A5000300A20003009F0004009BCE
:1023800000030098000300950002009300030090F2
:102390000003008D0002008B00030088000200860D
:1023A00000020084000300810002007F0002007D23
:1023B0000002007B00020079000200770001007635
:1023C0000002007400020072000100710002006F40
:1023D0000002006D0001006C0002006A000100694B
:1023E0000002006700010066000100650001006452
:1023F0000002006200010061000100600001005F56
:102400000002005D0001005C0001005B0001005A59
:10241000000100590001005800010057000100565A
:10242000000100550001005400010053000000535A
:102430000001005200010051000100500001004F56
:102440000001004E0000004E0001004D0001004C54
:102450000001004B0000004B0001004A0001004950
:10246000000100480000004800010047000100464C
:102470000000004600010045000000450001004446
:102480000001004300000043000100420000004240
:102490000001004100000041000100400001003F38
:1024A0000000003F0001003E0000003E0001003D32
:1024B0000000003D0001003C0000003C0000003C2A
:1024C0000001003B0000003B0001003A0000003A20
:1024D0000001003900000039000100380000003818
:1024E000000000380001003700000037000100360E
:1024F0000000003600000036000100350000003505
:1025000000000035000100340000003400000034F9
:1025100000010033000000330000003300010032EE
:1025200000000032000000320001003100000031E4
:1025300000000031000100300000003000000030D9
:102540000001002F0000002F0000002F0000002FCE
:102550000001002E0000002E0000002E0001002DC2
:102560000000002D0000002D0000002D0001002CB7
:102570000000002C0000002C0000002C0001002BAB
:102580000000002B0000002B0000002B0001002A9F
:102590000000002A0000002A0000002A0001002993
:1025A0000000002900000029000000290000002987
:1025B000000100280000002800000028000000287A
:1025C000000000280001002700000027000000276D
:1025D0000000002700000027000100260000002660
:1025E0000000002600000026000000260001002553
:1025F0000000002500000025000000250000002547
:102600000000002500010024000000240000002438
:10261000000000240000002400010023000000232B
:10262000000000230000002300000023000000231E
:102630000000002300010022000000220000002210
:102640000000002200000022000000220001002102
:1026500000000021000000210000002100000021F6
:1026600000000021000000210001002000000020E7
:1026700000000020000000200000002000000020DA
:1026800000000020000000200001001F0000001FCB
:102690000000001F0000001F0000001F0000001FBE
:1026A0000000001F0001001E0000001E0000001EB0
:1026B0000000001E00000045787472756465722089
:1026C00066616E207370656564206973206C6F7736
:1026D0006572207468616E206578706563746564E6
:1026E000005072696E742066616E20737065656457
:1026F000206973206C6F776572207468616E206545
:1027000078706563746564004572723A204D415873
:1027100054454D50003A20457874727564657220B6
:102720007377697463686564206F66662E204D4117
:102730005854454D5020747269676765726564200E
:1027400021004572723A204D415854454D50204267
:1027500045440054656D70657261747572652068DA
:102760006561746564206265642073776974636869
:102770006564206F66662E204D415854454D5020AB
:1027800074726967676572656420210070012C01AD
:1027900090012701B0012201C0011D01F0011801C3
:1027A0001002130130020E016002090190020401BF
:1027B000C002FF000003FA004003F5008003F000B0
:1027C000D003EB002004E6007004E100E004DC002C
:1027D0004005D700C005D2004006CD00D006C80095
:1027E0008007C3003008BE00F008B900C009B4007B
:1027F000B00AAF00B00BAA00D00CA500000EA000DC
:10280000500F9B00C01096005012910000148C00D5
:10281000C0158700B0178200B0197D00D01B78006A
:10282000001E730040206E0090226900F0246400B6
:1028300040275F0090295A00E02B5500102E5000D1
:1028400020304B0010324600E033410090353C0010
:102850001037370070383200A0392D00B03A280008
:10286000A03B2300603C1E00103D1900903D140069
:10287000103E0F00703E0A00C03E0500003F000001
:1028800090137D00B0157800F0177300601A6E0089
:10289000F01C6900A01F640050225F0020255A0030
:1028A000E0275500902A5000202D4B00A02F460015
:1028B000F031410010343C00F0353700A0373200D1
:1028C00020392D00603A2800703B2300603C1E0038
:1028D000203D1900C03D1400403E0F00A03E0A00FC
:1028E000F03E0500403F0000703FFBFF903FF6FFC9
:1028F000B03FF1FFC03FECFFD03FE7FFE03FE2FF1A
:10290000F03FDDFFF03FD8FF20484F54454E4420B4
:10291000544845524D414C2052554E415741590063
:10292000204845415442454420544845524D414C6D
:102930002052554E4157415900544845524D414C43
:102940002052554E41574159004245442054484574
:10295000524D414C2052554E415741590020544848
:1029600045524D414C2052554E4157415920282047
:102970005052454845415420484F54454E44290043
:1029800020544845524D414C2052554E41574159D3
:102990002028205052454845415420484541544242
:1029A0004544290050524548454154204552524F14
:1029B000520042454420505245484541542045521A
:1029C000524F5200506C656173652072657374617B
:1029D0007274004572723A204D494E54454D500074
:1029E0003A204578747275646572207377697463F0
:1029F000686564206F66662E204D494E54454D50E3
:102A0000207472696767657265642021004572727F
:102A10003A204D494E54454D50204245440054659E
:102A20006D70657261747572652068656174656446
:102A300020626564207377697463686564206F66DB
:102A4000662E204D494E54454D502074726967677B
:102A500065726564202100746D63323133305F68C4
:102A60006F6D655F656E74657228617865735F6D03
:102A700061736B3D307825303278290A00746D63BC
:102A8000323133305F686F6D655F657869742074CB
:102A90006D63323133305F73675F686F6D696E6786
:102AA0005F617865735F6D61736B3D30782530329F
:102AB000780A00726573756C742076616C75653A7E
:102AC0002025640A0020693D25326420636E743D30
:102AD0002532642076616C3D2532640A00636C7592
:102AE00073746572733A0A0020693D25326420735D
:102AF0007465703D2532640A00736F7274656420DA
:102B000073616D706C65733A0A00252D3773003A56
:102B1000200025642F3600252D3230530020202040
:102B200020202020202020202020202020202020A5
:102B300000203A20002020202020202020202020BB
:102B400020202020202020202000252D323073003E
:102B5000202020202020202020202020200025733D
:102B600000542564004731205A302E34204631303D
:102B700030302E3000473120592D332E3020463151
:102B80003030302E30004D3833004731205831304E
:102B9000302E30204531322E352046313030302E27
:102BA00030004731205836302E302045392E302025
:102BB00046313030302E3000011DEB1CD51CC51CB9
:102BC000BC1CA31C921C7D1C6C1C571C611D5D1D34
:102BD000591D551D3C1D2C1D211D181D4731205808
:102BE0003530205933352045252D2E3366008F1E74
:102BF0007B1E721E611E511E3B1E251E101EFB1DDC
:102C0000E51DD01DBC1DA81D931D7E1D6A1D496EAE
:102C100076616C6964205049442063616C2E207297
:102C20006573756C74732E204E6F742073746F729D
:102C3000656420746F20454550524F4D2E004D3530
:102C40003030004731205A313520463135303000A0
:102C5000473931004731205835302059313930203B
:102C6000453020463730303000473930004D383459
:102C7000004D373032204300473120583130205941
:102C8000313830204634303030004731205A31302E
:102C90002046313330302E303030004D313430204A
:102CA0005330004D31303420533000473120452D12
:102CB000302E30373530302046323130302E303003
:102CC000303030004D3130370025530A20252D316A
:102CD000362E313653252D33640A20252D31362EDC
:102CE000313653252D33640025530A20252D3136E6
:102CF0002E313653252D33640A20252D31362E31C1
:102D00003653252D33640A20252D31362E31365386
:102D1000252D33640025530A20252D31362E3136DA
:102D200053252D33640A20252D31362E3136532577
:102D30002D33640A20252D372E37535820252D3367
:102D40006420205920252D33640020257325336409
:102D500001200A000A204952203A20202020202069
:102D60002025332E31665600205057523A2020201D
:102D700020202025342E3166560A204245443A2030
:102D8000202020202025342E3166560025530A208D
:102D9000582025640A205920256400466C61736818
:102DA00041697220495020416464723A004D4D558A
:102DB00032202020202020204E2F410025642E2567
:102DC000642E25642D2564002046573A0041707218
:102DD0002020342032303230004533447636667558
:102DE0006C6C0045494E53795F31306100315F377B
:102DF000356D6D5F4D4B33002D2D2D2D2D2D2D2D32
:102E00002D2D2D2D0020545A42332E302E332D32AD
:102E1000343830004669726D776172653A00256416
:102E20002E25642E25642E2564004D373032004D4A
:102E3000373031004D373032004D37303100464C9D
:102E40004558202D20203234302F3530005050206E
:102E500020202D20203235342F3130300048495089
:102E600053202D20203232302F3130300041425358
:102E700020202D20203235352F3130300041534174
:102E800020202D20203236302F313035005045544F
:102E900020202D20203233302F383500504C412057
:102EA000202D20203231352F363000507265766962
:102EB0006F757320455854006E6F7A7A6C65202DBB
:102EC00020203235302F30006661726D2020202D99
:102ED00020203235302F383000252D31322E31323E
:102EE00053252B382E3166004578747275646572EF
:102EF0003A006D6D0059005800583A00593A005A8E
:102F00003A002563252D31332E313353252B352EB1
:102F100033660020003E003E0020003E003E00548C
:102F2000656D70657261747572652063616C69624C
:102F3000726174696F6E206661696C65642E2043EE
:102F40006F6E74696E75652077697468207072653C
:102F50007373696E6720746865206B6E6F622E00F4
:102F600054656D70657261747572652063616C691A
:102F700062726174696F6E20646F6E652E20436F9C
:102F80006E74696E756520776974682070726573F8
:102F900073696E6720746865206B6E6F622E004DDA
:102FA000313137204669727374206C617965722003
:102FB00063616C2E0050494E44412048656174693C
:102FC0006E670043616C6962726174696F6E206440
:102FD0006F6E650043616C6962726174696E67202F
:102FE0005A0042656420646F6E6500426564204843
:102FF000656174696E670048656174696E67206415
:103000006F6E652E0048656174696E6700504944B3
:103010002063616C2E2066696E6973686564005078
:1030200049442063616C2E20202020202020202075
:103030002020005072696E742070617573656400A1
:103040005072696E742046414E004E6F7A7A6C65FC
:103050002046414E00546F74616C004C61737420C3
:103060007072696E74004D4D55206C6F61642066FE
:1030700061696C73004D4D55206661696C73004C3D
:10308000617374207072696E74206661696C757208
:103090006573004D4D5520706F77657220666169CC
:1030A0006C73004D4D55206C6F6164206661696CD6
:1030B00073004D4D55206661696C7300546F7461E7
:1030C0006C206661696C7572657300437261736828
:1030D0000046696C616D2E2072756E6F7574730099
:1030E000506F776572206661696C75726573005404
:1030F0006F74616C206661696C75726573004372F0
:103100006173680046696C616D2E2072756E6F7513
:10311000747300506F776572206661696C757265B3
:1031200073004C617374207072696E7420666169FB
:103130006C7572657300546F74616C004C617374CC
:10314000207072696E740050494E444100416D62B6
:1031500069656E740042656C742073746174757374
:1031600000566F6C74616765730054656D706572AD
:103170006174757265730042656C74207374617458
:1031800075730053656E736F7220696E666F0045CC
:103190007874727564657220696E666F0058595A4A
:1031A0002063616C2E2064657461696C7300756EB8
:1031B0006B6E6F776E004D4D553220636F6E6E658E
:1031C0006374656400446174653A00686F77746F76
:1031D0002E707275736133642E636F6D00666F724B
:1031E000756D2E707275736133642E636F6D007030
:1031F0007275736133642E636F6D00746F20756E2A
:103200006C6F61642066696C616D656E7400746FCB
:10321000206C6F61642066696C616D656E7400502E
:103220007265737320746865206B6E6F62003E4335
:10323000616E63656C0050726568656174696E6784
:1032400020746F20637574005072656865617469DD
:103250006E6720746F20656A6563740050726568DC
:10326000656174696E6720746F20756E6C6F616440
:103270000050726568656174696E6720746F206CB8
:103280006F616400436F6F6C646F776E005072659E
:103290006865617420746865206E6F7A7A6C652148
:1032A000004552524F523A0046696C616D656E742A
:1032B00020657874727564696E672026207769745A
:1032C0006820636F727265637420636F6C6F723F06
:1032D000004175746F6C6F6164696E672066696C1C
:1032E000616D656E74206973206163746976652C05
:1032F000206A75737420707265737320746865201A
:103300006B6E6F6220616E6420696E7365727420EB
:1033100066696C616D656E742E2E2E005072696E3A
:10332000742074696D650046696C616D656E74200A
:103330007573656400546F74616C207072696E748B
:103340002074696D6500546F74616C2066696C61EE
:103350006D656E74005269676874004C6566740030
:10336000592064697374616E63652066726F6D20A5
:103370006D696E0053657665726520736B65773A8B
:1033800000536C6967687420736B65773A004D650C
:1033900061737572656420736B6577005B303B30D9
:1033A0005D20706F696E74206F666673657400418E
:1033B000646A757374696E67205A3A005265736562
:1033C0007400526561722073696465205B756D5D80
:1033D0000046726F6E7420736964655B756D5D0085
:1033E000526967687420736964655B756D5D004C34
:1033F0006566742073696465205B756D5D00536557
:10340000742074656D70657261747572653A0054EC
:10341000656D70657261747572652063616C696257
:10342000726174696F6E206661696C6564005465D1
:103430006D70657261747572652063616C6962722A
:103440006174696F6E2069732066696E697368655F
:103450006420616E64206163746976652E20546512
:103460006D702E2063616C6962726174696F6E2089
:1034700063616E2062652064697361626C656420BB
:10348000696E206D656E752053657474696E67731F
:103490002D3E54656D702E2063616C2E0049523AAA
:1034A0000046494E44413A0050494E44413A005387
:1034B000656E736F722073746174650020746F6F32
:1034C000206C6F6E6720657874727573696F6E20FB
:1034D00070726576656E7465640020636F6C64203D
:1034E000657874727573696F6E2070726576656E3B
:1034F00074656400544D4320445249564552204F50
:1035000056455254454D500025632533642F25649C
:103510002563005A25362E32662563005A20202066
:103520002D2D2D200025632533642525002D2D2DDF
:10353000002533686864002533532533732525003F
:103540002053440020202000555342002025753E82
:10355000257500203F3E2575002046257500204634
:103560003F002046302020005025342E31662F2584
:1035700032640025632D2D3A2D2D20200025632552
:103580003375682025632563002563253032753A3D
:103590002530327525632563002F2F206163746900
:1035A0006F6E3A706175736564002573202534640D
:1035B0002052504D0A2573202534642052504D0A64
:1035C0000025533A0A2531382E32666D200A2553DC
:1035D0003A0A2531306C6468202530326868646DA1
:1035E00020253032686864730025533A0A25313843
:1035F0002E32666D200A25533A0A2531306C6464F8
:103600002025303268686468202530326868646D2F
:103610000025362E32666D6D0025533A0A25530A71
:1036200025533A0A25533A0025332E3266010025E8
:10363000533A0A25530A252D31352E31355325337A
:103640002E3266010A252D31352E31355325332E84
:103650003266010020203000202031005365747450
:10366000696E67732053746F7265640053746F7270
:1036700065642073657474696E6773207265747213
:1036800069657665640048617264636F646564208F
:1036900044656661756C742053657474696E6773F4
:1036A000204C6F6164656400563200000000C8421F
:1036B0000000C8420000C8430080CF4300004843D8
:1036C00000004843000040410000F042E8030000D1
:1036D000E8030000C80000008813000000409C447C
:1036E00000409C440000000000000000204E00004C
:1036F0000000204100002041CDCCCC3E0000904095
:10370000000000000000000000000000CDCCCC3E16
:103710003D0A8141FF08433EB099AB438F42FC42D2
:10372000E65A343F4C62B0450000000000404000C3
:1037300000344200000000000000000000004100D2
:103740000000E03F0000C8420000C84200004041C5
:103750000000F042C0030000C0030000C8000000E9
:103760008813000010101008454550524F4D204559
:1037700072726F7200627573793A20706175736549
:103780006420666F7220696E70757400627573795B
:103790003A2070617573656420666F722075736579
:1037A0007200627573793A2070726F636573736922
:1037B0006E670000007F430080544300004D4300CB
:1037C000000000000080C09A99193E00000000002F
:1037D0000080C09A99193E0000A0400000A040005F
:1037E00000004025336420737465703D25326420E9
:1037F0006D73636E743D2534640A0000007F4300DE
:103800008058439AD94C43FFFFFF67636F64655F3D
:103810004D37303120626567696E0A00442D3120D2
:103820002D20456E646C657373206C6F6F700A0099
:10383000416476616E6365204B3D004B206F75746B
:10384000206F6620616C6C6F7765642072616E67B3
:103850006521004D323230205325690025534669D9
:103860006C616D656E742073657474696E67733A0C
:103870002044697361626C65640A00255346696C73
:10388000616D656E742073657474696E67733A0A4E
:1038900025532020204D3230302044252E32660A18
:1038A000002553526574726163743A20533D4C6530
:1038B0006E67746820286D6D2920463A53706565DF
:1038C0006420286D6D2F6D29205A3A205A4C696664
:1038D0007420286D6D290A25532020204D32303761
:1038E0002053252E32662046252E3266205A252E5C
:1038F00032660A25535265636F7665723A20533DEE
:103900004578747261206C656E67746820286D6DEF
:103910002920463A537065656420286D6D2F6D2906
:103920000A25532020204D3230382053252E326670
:103930002046252E32660A25534175746F2D526537
:1039400074726163743A20533D3020746F2064694F
:103950007361626C652C203120746F20696E746510
:10396000727072657420657874727564652D6F6EFF
:103970006C79206D6F766573206173207265747247
:1039800061637473206F72207265636F766572690C
:1039900065730A25532020204D3230392053256489
:1039A0000A002553504944206865617462656420AB
:1039B00073657474696E67733A0A25532020204D2D
:1039C0003330342050252E32662049252E32662091
:1039D00044252E32660A00255350494420736574ED
:1039E00074696E67733A0A25532020204D333031B5
:1039F0002050252E32662049252E32662044252E61
:103A000032660A0025535374657073207065722006
:103A1000756E69743A0A255320204D393220582595
:103A20002E32662059252E3266205A252E326620E7
:103A300045252E32660A25535553746570207265EC
:103A4000736F6C7574696F6E3A200A2553204D337D
:103A500035302058256420592564205A2564204596
:103A600025640A25534D6178696D756D206665651D
:103A7000647261746573202D206E6F726D616C20AD
:103A8000286D6D2F73293A0A255320204D3230338B
:103A90002058252E32662059252E3266205A252E92
:103AA00032662045252E32660A25534D6178696DB0
:103AB000756D20666565647261746573202D207371
:103AC0007465616C746820286D6D2F73293A0A251E
:103AD0005320204D3230332058252E326620592570
:103AE0002E3266205A252E32662045252E32660A51
:103AF00025534D6178696D756D20616363656C65F3
:103B0000726174696F6E202D206E6F726D616C2012
:103B1000286D6D2F7332293A0A255320204D3230FB
:103B2000312058256C752059256C75205A256C75E7
:103B30002045256C750A25534D6178696D756D209A
:103B4000616363656C65726174696F6E202D2073AB
:103B50007465616C746820286D6D2F7332293A0A80
:103B6000255320204D3230312058256C75205925A1
:103B70006C75205A256C752045256C750A255341B6
:103B80006363656C65726174696F6E3A20533D6161
:103B90006363656C65726174696F6E2C20543D724D
:103BA00065747261637420616363656C65726174CE
:103BB000696F6E0A255320204D3230342053252E54
:103BC00032662054252E32660A2553416476616E92
:103BD000636564207661726961626C65733A205333
:103BE0003D4D696E20666565647261746520286D5F
:103BF0006D2F73292C20543D4D696E2074726176AF
:103C0000656C20666565647261746520286D6D2F32
:103C100073292C20423D6D696E696D756D20736549
:103C2000676D656E742074696D6520286D73292C2D
:103C300020583D6D6178696D756D205859206A6511
:103C4000726B20286D6D2F73292C20205A3D6D61D9
:103C500078696D756D205A206A65726B20286D6DCC
:103C60002F73292C2020453D6D6178696D756D207D
:103C700045206A65726B20286D6D2F73290A2553C4
:103C800020204D3230352053252E32662054252EEB
:103C900032662042252E32662058252E3266205963
:103CA000252E3266205A252E32662045252E326674
:103CB0000A2553486F6D65206F666673657420280A
:103CC0006D6D293A0A255320204D32303620582573
:103CD0002E32662059252E3266205A252E32660A4B
:103CE000004D4B33203D3E20274625642025642788
:103CF0000A00504944204175746F74756E652066E2
:103D0000696E6973686564212050757420746865F4
:103D1000206C617374204B702C204B6920616E64A1
:103D2000204B6420636F6E7374616E7473206672CF
:103D30006F6D2061626F766520696E746F20436FCE
:103D40006E66696775726174696F6E2E680050499E
:103D500044204175746F74756E65206661696C6589
:103D600064212074696D656F75740020403A0054B9
:103D70003A00423A00504944204175746F74756EA0
:103D800065206661696C6564212054656D7065729B
:103D9000617475726520746F6F20686967680020B0
:103DA0004B643A2000204B693A2000204B703A20A7
:103DB0000020436C617373696320504944200020E4
:103DC00054753A2000204B753A2000206D61783AF6
:103DD0002000206D696E3A200020643A20002062A5
:103DE0006961733A200020453A00205A3A00205970
:103DF0003A0020453A00205A3A0020593A00583AF1
:103E000000005A30005A3100593000593100583002
:103E100000583100456E642073746F7073206469BC
:103E20006167002E0044656C6574696F6E20666181
:103E3000696C65642C2046696C653A200046696CA3
:103E4000652064656C657465643A000A002F000A99
:103E5000004E6F74205344207072696E74696E67EF
:103E6000005072696E74207361766564005344205B
:103E70007072696E7420706175736564004F4B00D9
:103E80004241440052414D426F2046414E20004382
:103E9000524153485F43414E43454C0043524153C6
:103EA000485F5245434F5645520043524153485F85
:103EB0005245434F564552002228322900540044AF
:103EC00075706C696361746520542D636F6465203F
:103ED00069676E6F7265642E0A004475706C696361
:103EE00061746520542D636F64652069676E6F721D
:103EF00065642E0A00496E76616C69642054206303
:103F00006F64652E00556E6B6E6F776E204D20636B
:103F10006F64653A202573200A006E6F2076616C0D
:103F2000696420636F6D6D616E64002C20002C202D
:103F3000002C20006E2F61002C20002C20002C2053
:103F4000006E2F61002F00503A005761697420669F
:103F50006F722050494E444120746172676574202D
:103F600074656D70657261747572653A004C414E8E
:103F7000472053454C20464F5243454400222831A8
:103F8000290030303030303030302D303030302D6E
:103F9000303030302D303030302D30303030303027
:103FA0003030303030300020555549443A0031002F
:103FB0002045585452554445525F434F554E543A4C
:103FC00000426F6E64746563682D4D4D2D545A42E6
:103FD000204D4B33732D485400204D414348494EEA
:103FE000455F545950453A00312E300020626173CC
:103FF0006564206F6E204D61726C696E2046495277
:104000004D574152455F55524C3A68747470733A3B
:104010002F2F6769746875622E636F6D2F707275CC
:10402000736133642F50727573612D4669726D77B9
:104030006172652050524F544F434F4C5F5645526A
:1040400053494F4E3A004649524D574152455F4EF3
:10405000414D453A50727573612D4669726D7761B5
:10406000726520004D31313320530020423A002048
:10407000453A00543A0020413A0020503A0020428C
:10408000403A0020403A00202F003A0020540020FF
:104090002F0020423A00202F006F6B20543A002559
:1040A00069206D696E2C2025692073656300496E57
:1040B00076616C6964204D20636F64653A202573D6
:1040C000200A00556E6B6E6F776E204720636F6419
:1040D000653A202573200A004D6573682062656487
:1040E000206C6576656C696E67206E6F7420616305
:1040F000746976652E000A002020000A4D65617300
:104100007572656420706F696E74733A000A5A2084
:10411000736561726368206865696768743A200036
:104120002C004E756D20582C593A2000206D696383
:10413000726F6E730045786365737369766520628C
:104140006564206C6576656C696E6720636F72725A
:10415000656374696F6E3A2000426564206C657611
:10416000656C696E67206661696C65642E205365B5
:104170006E736F722074726967676572656420740C
:104180006F6F20686967682E0A00426564206C655D
:1041900076656C696E67206661696C65642E205374
:1041A000656E736F7220646973636F6E6E6563749E
:1041B0006564206F72206361626C652062726F6B50
:1041C000656E2E0A004732382057300050494E4461
:1041D000412070726F62652063616C696272617404
:1041E000696F6E20737461727400473238205730E3
:1041F000004D3234005345545F43484F505F0053E5
:1042000045545F535445505F005345545F574156E2
:10421000455F00544D435F0043524153485F0025C2
:1042200064206279746573207772697474656E2096
:10423000746F20454550524F4D2061742061646475
:104240007265737320307825303478004433202D24
:1042500020526561642F577269746520454550523C
:104260004F4D0A0020436F756E7420583A2000535A
:1042700044207072696E74696E672062797465207B
:10428000004E6F7420696E206661726D206D6F64E0
:10429000652E004163746976652045787472756493
:1042A00065723A2000496E76616C696420657874A5
:1042B0007275646572005A204F66667365740055A6
:1042C0006E6B6E6F776E20636F6D6D616E643A20FA
:1042D00022004D32303020496E76616C6964206571
:1042E0007874727564657220007A5F6D61783A2027
:1042F000007A5F6D696E3A2000795F6D61783A20CF
:1043000000795F6D696E3A2000785F6D61783A20C0
:1043100000545249474745524544006F70656E004E
:10432000785F6D696E3A20005265706F7274696EC5
:104330006720656E6473746F702073746174757335
:104340000053494C454E54004E4F524D414C0025B0
:1043500053204D4F44453A2050657263656E74207A
:10436000646F6E653A2025643B207072696E74201C
:1043700074696D652072656D61696E696E6720692B
:104380006E206D696E733A2025640A00456E6420C4
:1043900066696C65206C69737400426567696E209C
:1043A00066696C65206C697374000A50494E44411B
:1043B0002074656D70657261747572653A20252E82
:1043C0003166205A20736869667420286D6D293A19
:1043D00020252E3366000A537465703A2025642F19
:1043E000360A000A537465703A2025642F36202857
:1043F000736B6970706564290A50494E444120749A
:10440000656D70657261747572653A202564205A15
:1044100020736869667420286D6D293A300A000A95
:104420005A45524F3A20252E33660A007374617242
:10443000742074656D70657261747572653A2025BB
:104440002E31660A0025642020252E326600255371
:1044500020583A20252E356620593A20252E3566DB
:10446000205A3A20252E35660A00536C6565702E59
:104470002E2E004E6F7420696E206661726D206D65
:104480006F64652E0025640045303A256420525043
:104490004D0A50524E303A25642052504D0A0025A4
:1044A0006400526573656E640025533A20256C6480
:1044B0000A25530A00472D636F646520736C696396
:1044C000656420666F722061206469666665726546
:1044D0006E74206C6576656C2E20436F6E74696E09
:1044E00075653F00472D636F646520736C69636574
:1044F0006420666F72206120646966666572656E0D
:1045000074206C6576656C2E20506C656173652037
:1045100072652D736C69636520746865206D6F64C6
:10452000656C20616761696E2E205072696E74201F
:1045300063616E63656C6C65642E00472D636F6408
:104540006520736C6963656420666F722061206EFC
:1045500065776572206669726D776172652E20508D
:104560006C6561736520757064617465207468653D
:10457000206669726D776172652E205072696E7463
:104580002063616E63656C6C65642E00472D636FFC
:10459000646520736C6963656420666F72206120B6
:1045A0006E65776572206669726D776172652E201F
:1045B000436F6E74696E75653F00472D636F646568
:1045C00020736C6963656420666F72206120646982
:1045D00066666572656E74207072696E74657220AD
:1045E000747970652E20506C656173652072652D3D
:1045F000736C69636520746865206D6F64656C20F9
:10460000616761696E2E205072696E742063616EFD
:1046100063656C6C65642E00472D636F6465207361
:104620006C6963656420666F7220612064696666E8
:104630006572656E74207072696E7465722074792B
:1046400070652E20436F6E74696E75653F00472D4F
:10465000636F646520736C6963656420666F7220A4
:104660006120646966666572656E74207072696E39
:1046700074657220747970652E20436F6E74696E54
:1046800075653F00472D636F646520736C696365D2
:104690006420666F72206120646966666572656E6B
:1046A00074207072696E74657220747970652E2042
:1046B000506C656173652072652D736C696365204C
:1046C000746865206D6F64656C20616761696E2E2A
:1046D000205072696E742063616E63656C6C6564F2
:1046E0002E005072657373206B6E6F6220746F20A2
:1046F00070726568656174206E6F7A7A6C6520618E
:104700006E6420636F6E74696E75652E00506C6503
:1047100061736520707265737320746865206B6EB9
:104720006F6220746F20756E6C6F61642066696CB7
:10473000616D656E740052656D6F766520656A65A2
:10474000637465642066696C616D656E7420616E6A
:104750006420707265737320746865206B6E6F627D
:1047600020746F207374617274206C6F6164696E61
:1047700067206E65772066696C616D656E742E00CA
:10478000616E6420707265737320746865206B6E4F
:104790006F6200496E736572742066696C616D6545
:1047A0006E7400436F6C6F72206E6F7420636F7253
:1047B000726563740046696C616D656E74206E6F1E
:1047C00074206C6F61646564004368616E67656442
:1047D00020636F72726563746C793F004C6F616423
:1047E000696E6720636F6C6F72004368616E676506
:1047F00020737563636573732100506C6561736525
:10480000206F70656E2069646C657220616E642033
:1048100072656D6F76652066696C616D656E74207A
:104820006D616E75616C6C792E00576173206669DD
:104830006C616D656E7420756E6C6F61642073754C
:10484000636365737366756C3F00506C6561736577
:1048500020757067726164652E004E657720666909
:10486000726D776172652076657273696F6E206113
:104870007661696C61626C653A0057616974696E52
:104880006720666F722050494E44412070726F62FB
:104890006520636F6F6C696E670043726173682097
:1048A00064657465637465642E20526573756D6507
:1048B000207072696E743F00437261736820646592
:1048C0007465637465642E004578747275646572EE
:1048D0000043686F6F7365206578747275646572E4
:1048E0003A0043686F6F73652066696C616D656E31
:1048F000743A004E6F206D6F76652E0057616974B3
:1049000020666F7220757365722E2E2E00536F6DA8
:10491000652070726F626C656D20656E636F756E79
:1049200074657265642C205A2D6C6576656C696EB1
:104930006720656E666F72636564202E2E2E0053AD
:104940007461626C6520616D6269656E7420746566
:104950006D70657261747572652032312D32364327
:10496000206973206E6565646564206120726967E3
:104970006964207374616E64206973207265717557
:10498000697265642E00506C656173652072756E86
:104990002058595A2063616C6962726174696F6E44
:1049A0002066697273742E004D3630300066736570
:1049B0006E736F725F757064617465202D204D3663
:1049C00030300A0049522073656E736F72206E6F2B
:1049D0007420726573706F6E64696E672028256439
:1049E00029210A0020573A0020453A00543A005A3B
:1049F000206C6976652061646A757374206F7574C4
:104A0000206F662072616E67652E2053657474692D
:104A10006E6720746F20302E20436C69636B2074A6
:104A20006F20636F6E74696E75652E005A206C6915
:104A300076652061646A757374206F7574206F6683
:104A40002072616E67652E2053657474696E6720ED
:104A5000746F20300020423A0020453A00543A005A
:104A6000494E5434007265636F7665725F6D6163A1
:104A700068696E655F73746174655F6166746572A1
:104A80005F706F7765725F70616E69632C20696E0D
:104A9000697469616C200050525553412075766CE1
:104AA0006F004734205330004D32362053256C754B
:104AB000004D3130362053004D32323020532564C2
:104AC00000473120462564004D38320047393220F6
:104AD00045004731204525302E3366204632373099
:104AE00030004731205A2566005052555341204D21
:104AF000424C205631004731205825662059256602
:104B000020463330303000506F736974696F6E2007
:104B1000726561642066726F6D20656570726F6D7D
:104B20003A004D3233202573002E67636F002C202E
:104B3000666565646D756C7469706C793A0046657C
:104B40006564726174653A0047312045252D302E29
:104B50003366204632373030004731204535204615
:104B6000313230004D3833004D3130392053256417
:104B7000004D31393020532564004D3130342053FD
:104B800025640047323820582059004731205A25E3
:104B90002E33662046383030004731205A252D30DC
:104BA0002E33662046252D302E33660047312045B2
:104BB000252D302E3366204632373030004D3833C5
:104BC0000000002110422063308440A550C660E7F9
:104BD00070088129914AA16BB18CC1ADD1CEE1EFB2
:104BE000F13112100273325222B5529442F772D64A
:104BF00062399318837BB35AA3BDD39CC3FFF3DE02
:104C0000E36224433420040114E664C774A4448599
:104C1000546AA54BB528850995EEE5CFF5ACC58D51
:104C2000D55336722611163006D776F6669556B4E9
:104C3000465BB77AA719973887DFF7FEE79DD7BCA1
:104C4000C7C448E5588668A7784008611802282339
:104C500038CCC9EDD98EE9AFF9488969990AA92BF1
:104C6000B9F55AD44AB77A966A711A500A333A1289
:104C70002AFDDBDCCBBFFB9EEB799B588B3BBB1A41
:104C8000ABA66C877CE44CC55C222C033C600C41D9
:104C90001CAEED8FFDECCDCDDD2AAD0BBD688D4991
:104CA0009D977EB66ED55EF44E133E322E511E7029
:104CB0000E9FFFBEEFDDDFFCCF1BBF3AAF599F78E1
:104CC0008F8891A981CAB1EBA10CD12DC14EF16F92
:104CD000E18010A100C230E32004502540467067F7
:104CE00060B9839893FBA3DAB33DC31CD37FE35E23
:104CF000F3B1029012F322D2323542145277625647
:104D000072EAB5CBA5A89589856EF54FE52CD50D32
:104D1000C5E234C324A01481046674476424540596
:104D200044DBA7FAB79987B8975FE77EF71DC73CC2
:104D3000D7D326F2369106B01657667676154634E6
:104D4000564CD96DC90EF92FE9C899E9898AB9ABD2
:104D5000A94458654806782768C018E1088238A336
:104D6000287DCB5CDB3FEB1EFBF98BD89BBBAB9A62
:104D7000BB754A545A376A167AF10AD01AB32A9286
:104D80003A2EFD0FED6CDD4DCDAABD8BADE89DC972
:104D90008D267C076C645C454CA23C832CE01CC1D6
:104DA0000C1FEF3EFF5DCF7CDF9BAFBABFD98FF802
:104DB0009F176E367E554E745E932EB23ED10EF026
:104DC0001E7C3C3E3F2F2A225C0022206661696CDB
:104DD00065643A204275666665722066756C6C2162
:104DE000002200256920686F757273202569206D87
:104DF000696E757465730054494D454F55543A00BA
:104E00004D3131300046756C6C2052582042756629
:104E100066657200437573746F6D005465787475C0
:104E20007200536D6F6F74680047312059252D2E25
:104E300032662045252D2E336600473120582564E3
:104E40002059252D2E32662045252D2E33660066ED
:104E500073656E736F725F636865636B706F696EA5
:104E6000745F7072696E740A00312E3000312E3515
:104E700000554E4B4E4F574E004C413130433A2077
:104E80004C696E65617220416476616E6365206D68
:104E90006F64653A20004C413130433A2041646AE6
:104EA000757374656420452D4A65726B3A20000065
:104EB0000E1315110E000000041209120400000068
:104EC0001C1F11111F00000006191803130C000409
:104ED0000E1F041C000000040A0A0A0A11110E0029
:104EE0001F1511151F0000000103161C080000000B
:104EF00000110A04110A040C12120C000000002513
:104F000063252D31382E3138532563005B25735DC1
:104F10002563005B25535D2563002563252D31380E
:104F20002E31385300252E31305320002563252D96
:104F300031382E3138732563002563252D2E313607
:104F40005320002563252E3135533A2573253364CC
:104F500000457872656D65207370616E206F662004
:104F6000746865205A2076616C75657321004D4D1B
:104F70005532206669726D7761726520766572734D
:104F8000696F6E20696E76616C69642E205265715E
:104F900075697265642076657273696F6E3A206216
:104FA00075696C64206E756D626572202564206F72
:104FB00072206869676865722E004D4D5532532026
:104FC0003D3E204D4B33325320276F6B270A004D57
:104FD0004D553253203D3E204D4B33325320275503
:104FE0006E6C6F61642046656564726174653A2019
:104FF00025642564270A004D4B333253203D3E2063
:105000004D4D55325320274D2564270A004D4B3313
:105010003253203D3E204D4D5532532027462564C6
:10502000202564270A004D4B333253203D3E204D4E
:105030004D55325320275230270A004D4B333253FF
:10504000203D3E204D4D5532532027452564270AEB
:10505000004D4B333253203D3E204D4D55325320B1
:10506000275530270A004D4B333253203D3E204D0B
:105070004D55325320274330270A004D4B333253CE
:10508000203D3E204D4D55325320274C2564270AA4
:10509000004D4B333253203D3E204D4D5532532071
:1050A00027542564270A004D4B333253203D3E20C0
:1050B0004D4D553253205265717565737420274DDF
:1050C0006D75436D643A3A2573270A004D4D55328C
:1050D00053203D3E204D4B3332532027436F6E66A5
:1050E00069726D204D2564270A004D4D55202D20F5
:1050F000454E41424C4544004D4D553253203D3EB6
:10510000204D4B3332532027416374697665204527
:10511000787472756465723A2564270A004D4D559E
:105120002076657273696F6E2076616C6964004DDC
:105130004D553253203D3E204D4B333253202742B4
:105140004E3A2564270A004D4D553253203D3E20EE
:105150004D4B3332532027563A2564270A004D4DD4
:1051600055206E6F7420726573706F6E64696E6720
:10517000202D2044495341424C4544004D363030A7
:10518000204155544F004D363030002F2F206163A1
:1051900074696F6E3A6D3630300A004D4D5532539A
:1051A000203D3E204D4B333253202740746F6F6CAF
:1051B0004368616E67653A2564270A002F2F2061D6
:1051C0006374696F6E3A6D6D754661696C6564559F
:1051D0006E6C6F61640A002F2F20616374696F6EBB
:1051E0003A6D6D754661696C65644C6F61644952D6
:1051F0005F53454E534F520A002F2F20616374694D
:105200006F6E3A6D6D754661696C65644C6F616473
:1052100046494E44410A004D4D553253203D3E20F3
:105220004D4B33325320274F4B20416374697665D1
:105230002045787472756465723A2564270A004DBA
:105240004B3353203D3E204D4D553253203A20489C
:1052500057522052455345540A004D4B3332532088
:105260003D3E204D4D553253202746696C616D659A
:105270006E74207365656E20617420657874727534
:10528000646572270A004D4D552073746172747302
:1052900020726573706F6E64696E670A004D4D55BC
:1052A000206E6F7420726573706F6E64696E670A2A
:1052B000002F2F20616374696F6E3A6D6D754174B4
:1052C00074656E74696F6E0A00452D41584953200C
:1052D000456E61626C65642E0A00452D4158495344
:1052E0002044697361626C65642E0A0046696C61D2
:1052F0006D656E74206F7574206F662072616E67C5
:1053000065202564200A000000803F555585410036
:1053100000803F0000C84100000040555505420094
:1053200000C03F0000484200002040555585420023
:1053300000B0C1ABAAA642000060C10000A04100BD
:1053400000C0C00000204100002041ABAA3A41004B
:105350000020C15555D540000008C2555505424DA5
:105360004D5520556E6C6F6164696E672046696C9F
:105370003A2564004D373031204534004D37303107
:10538000204533004D373031204532004D37303124
:10539000204531004D373031204530004D4D5520EE
:1053A0004C6F6164696E67204578743A2564002FFC
:1053B0002F20616374696F6E3A6A616D446574652C
:1053C000637465640A004A616D2C204D616C666FE0
:1053D000726D656420546970206F7220436C6F6732
:1053E0002E0A0046696C616D656E74206E72206FC6
:1053F0007574206F662072616E67652100773235A3
:10540000783230636C5F63666D0A007732357832CC
:1054100030636C5F656E7465720A007374617274D8
:105420000A0048656174696E672064697361626C23
:105430006564206279207361666574792074696D92
:1054400065722E005265636F766572696E672070B3
:1054500072696E742020202000506C656173652095
:10546000776169740053544F505045442E200042D8
:105470006564206C6576656C696E67206661696C31
:1054800065642E2053656E736F72206469646E7458
:1054900020747269676765722E2044656272697351
:1054A000206F6E206E6F7A7A6C653F205761697449
:1054B000696E6720666F722072657365742E005086
:1054C0006C656173652075706461746520666972CE
:1054D0006D7761726520696E20796F7572204D4D10
:1054E00055322E2057616974696E6720666F72208D
:1054F00072657365742E0043757272656E74206DEB
:105500006D3A200020202020202020202020202054
:105510002020202020202020004D3A426F774C652B
:105520006E204C6F616432436865636B20004C3AB7
:10553000202020536176652026204578697420203C
:1055400020200043757272656E74206D6D3A2000E4
:10555000523A202D326D6D20285265747261637449
:1055600029202020004D3A556E6C6F6164285361EC
:1055700076652F526574727929004C3A202B326D72
:105580006D202845787472756465292020200043B9
:10559000757272656E74206D6D3A2000523A20204B
:1055A0002D316D6D2028526574726163742920203D
:1055B000004D3A556E6C6F6164205361766520260C
:1055C0002045786974004C3A20202B316D6D2028DD
:1055D00045787472756465292020004D4D55204F23
:1055E0004B2E20526573756D696E672E2E2E004D01
:1055F0004D55204F4B2E20526573756D696E672097
:10560000706F736974696F6E2E2E2E004D4D55208C
:105610004F4B2E20526573756D696E672074656DF2
:1056200070657261747572652E2E2E004669782041
:1056300074686520697373756520616E6420746891
:10564000656E20707265737320627574746F6E205E
:105650006F6E204D4D5520756E69742E0050726529
:10566000737320746865206B6E6F6220746F207294
:105670006573756D65206E6F7A7A6C652074656DE3
:1056800070657261747572652E004D4D55206E65A2
:10569000656473207573657220617474656E7469D6
:1056A0006F6E2E002020202020202020202020206F
:1056B000202020202020202000436C69636B20776D
:1056C0006865656C20746F2072657472790020487B
:1056D000656174627265616B204A616D2F436C6F06
:1056E0006720002020202020202020202020202093
:1056F0002020202020202000506C656173652072DE
:10570000656D6F76652066696C616D656E7420618C
:105710006E64207468656E2070726573732074689F
:1057200065206B6E6F622E00456A656374696E67F3
:105730002066696C616D656E7400496E61637469A1
:10574000766974792053687574646F776E004B497D
:105750004C4C45442E20005072696E74657220686E
:10576000616C7465642E206B696C6C282920636100
:105770006C6C656421004B494C4C3A2025640A004E
:105780004D32323120496E76616C696420657874DF
:10579000727564657220004D32313820496E766131
:1057A0006C696420657874727564657220004D318F
:1057B000303920496E76616C696420657874727541
:1057C00064657220004D31303520496E76616C6918
:1057D0006420657874727564657220004D313034D0
:1057E00020496E76616C69642065787472756465B1
:1057F000722000504F5745522050414E494320449B
:10580000455445435445440055564C4F202D206582
:105810006E642025640A0055564C4F5F54494E591A
:10582000202D20656E642025640A00776F726C64F9
:1058300020636F6F7264696E617465733A20282506
:105840002E33662C20252E33662C20252E336629F8
:105850000A0043757272656E7420706F73205A5F10
:10586000415849533A252E33660A43757272656E64
:105870007420706F7320455F415849533A252E3389
:10588000660A0041667465722077616974696E67A3
:1058900020666F722074656D703A0A437572726586
:1058A0006E7420706F7320585F415849533A252E0B
:1058B00033660A43757272656E7420706F73205977
:1058C0005F415849533A252E33660A00656E71755B
:1058D00065696E67202200446F6E65207072696E84
:1058E00074696E672066696C65004D3131322063E2
:1058F000616C6C65642E20456D657267656E6379B9
:105900002053746F702E005072696E74657220732C
:10591000746F707065642064756520746F206572A3
:10592000726F72732E2046697820746865206572E4
:10593000726F7220616E6420757365204D3939393C
:1059400020746F20726573746172742E2028546500
:105950006D7065726174757265206973207265730C
:1059600065742E20536574206974206166746572B5
:105970002072657374617274696E6729004E6F20BE
:105980004C696E65204E756D62657220776974682A
:1059900020636865636B73756D2C204C6173742094
:1059A0004C696E653A20004E6F20436865636B73E7
:1059B000756D2077697468206C696E65206E756DF1
:1059C0006265722C204C617374204C696E653A20BC
:1059D00000636865636B73756D206D69736D6174C9
:1059E00063682C204C617374204C696E653A20000A
:1059F0004C696E65204E756D626572206973206E0C
:105A00006F74204C617374204C696E65204E756D07
:105A10006265722B312C204C617374204C696E6569
:105A20003A200025632533642F25642563005859E7
:105A30005A2063616C6962726174696F6E20616C77
:105A40006C2072696768742E20536B6577207769C4
:105A50006C6C20626520636F72726563746564208C
:105A60006175746F6D61746963616C6C792E005837
:105A7000595A2063616C6962726174696F6E20614A
:105A80006C6C2072696768742E20582F59206178D9
:105A900065732061726520736C696768746C792026
:105AA000736B657765642E20476F6F64206A6F6241
:105AB000210058595A2063616C6962726174696F80
:105AC0006E206F6B2E20582F5920617865732061EE
:105AD00072652070657270656E646963756C617261
